:100000000C9484060C94B5060C94B5060C94B506B5
:100010000C94B5060C94B5060C94B5060C94B50674
:100020000C94B5060C94B5060C94B5060C94B50664
:100030000C94B5060C943F1D0C94B5060C94B506B3
:100040000C94B5060C94B5060C94B5060C94B50644
:100050000C94B5060C94B5060C94B5060C94FF1DD3
:100060000C94B5060C94C91D0C949F1D0C94B506F8
:100070000C94B5060C94B5060C94B5060C94B50614
:100080000C94B5060C94B5060C94B5060C94B50604
:100090000C94B5060C94B5060C94B5060C94491E48
:1000A0000C94B5060C94B5060C94B5060C94B506E4
:1000B0000C94B5060C94B5060C94B5060C94B506D4
:1000C0000C94B5060C94B5060C94B5060C94B506C4
:1000D0000C94B5060C94B5060C94B5060C94B506B4
:1000E0000C94B5060C946D1F0C9447080C94E7060D
:1000F0000C9435080C943F080C94B7060C945007E8
:100100000C9412080C948C140C94580C0C940C083D
:100110000C947B100C9418070C9431080C941C154B
:100120000C940A070C944E120C94B9060C944212CB
:100130000C941E080C949D070C942B080C94110C25
:100140000C9427080C941E180C9451080C94210848
:100150000C944D080C946F0D0C9439080C942612D5
:100160000C94B8060C9474180C9436120C94020C6F
:100170000C94A90F0C94F6060C94240C0C942B0CE4
:100180000C94C9120C9416080C944C080C94D514B9
:100190000C941A080C940B2A0C9475180C94BA063B
:1001A0000C94DA100C9443080C946F110C945211B7
:1001B000000103070F1F3F7F0080C0E0F0F8FCFE46
:1001C00000000000003E5B4F5B3E3E6B4F6B3E1CF1
:1001D0003E7C3E1C183C7E3C181C577D571C1C5E08
:1001E0007F5E1C00183C1800FFE7C3E7FF001824DF
:1001F0001800FFE7DBE7FF30483A060E2629792989
:1002000026407F050507407F05253F5A3CE73C5ABD
:100210007F3E1C1C08081C1C3E7F14227F22145F9A
:100220005F005F5F06097F017F006689956A6060F5
:1002300060606094A2FFA29408047E040810207EEF
:10024000201008082A1C08081C2A08081E10101074
:10025000100C1E0C1E0C30383E3830060E3E0E06BA
:10026000000000000000005F00000007000700140D
:100270007F147F14242A7F2A1223130864623649CC
:100280005620500008070300001C224100004122B4
:100290001C002A1C7F1C2A08083E080800807030B9
:1002A0000008080808080000606000201008040228
:1002B0003E5149453E00427F40007249494946212E
:1002C00041494D331814127F1027454545393C4AA2
:1002D00049493141211109073649494936464949B9
:1002E000291E000014000000403400000008142201
:1002F000411414141414004122140802015909066F
:100300003E415D594E7C1211127C7F494949363E6F
:10031000414141227F4141413E7F494949417F0955
:100320000909013E414151737F0808087F00417F60
:1003300041002040413F017F081422417F4040405E
:10034000407F021C027F7F0408107F3E4141413EF6
:100350007F090909063E4151215E7F091929462678
:100360004949493203017F01033F4040403F1F207C
:1003700040201F3F4038403F631408146303047853
:1003800004036159494D43007F4141410204081073
:1003900020004141417F04020102044040404040AE
:1003A000000307080020545478407F28444438381C
:1003B00044444428384444287F385454541800088E
:1003C0007E090218A4A49C787F0804047800447D68
:1003D00040002040403D007F1028440000417F4005
:1003E000007C047804787C08040478384444443859
:1003F000FC1824241818242418FC7C080404084839
:100400005454542404043F44243C4040207C1C2089
:1004100040201C3C4030403C44281028444C9090E4
:10042000907C4464544C440008364100000077003E
:1004300000004136080002010204023C2623263C4B
:100440001EA1A161123A4040207A385454555921D6
:1004500055557941225454784221555478402054BE
:100460005579400C1E52721239555555593954540C
:10047000545939555454580000457C410002457D7B
:10048000420001457C407D1211127DF0282528F0A4
:100490007C545545002054547C547C0A097F4932D1
:1004A000494949323A4444443A324A4848303A4148
:1004B00041217A3A42402078009DA0A07D3D4242F1
:1004C000423D3D4040403D3C24FF2424487E49437A
:1004D000662B2FFC2F2BFF0929F620C0887E0903ED
:1004E00020545479410000447D413048484A323814
:1004F0004040227A007A0A0A727D0D19317D262940
:10050000292F28262929292630484D402038080837
:10051000080808080808382F10C8ACBA2F1028346B
:10052000FA00007B000008142A142222142A14085E
:100530005500550055AA55AA55AAFF55FF55FF006D
:100540000000FF00101010FF00141414FF00101022
:10055000FF00FF1010F010F0141414FC001414F736
:1005600000FF0000FF00FF1414F404FC1414171023
:100570001F10101F101F1414141F00101010F00073
:100580000000001F101010101F10101010F01000AD
:100590000000FF101010101010101010FF100000BD
:1005A00000FF140000FF00FF00001F10170000FCF8
:1005B00004F414141710171414F404F40000FF00CA
:1005C000F714141414141414F700F7141414171453
:1005D00010101F101F141414F4141010F010F00059
:1005E000001F101F0000001F14000000FC1400007A
:1005F000F010F01010FF10FF141414FF141010105E
:100600001F00000000F010FFFFFFFFFFF0F0F0F010
:10061000F0FFFFFF0000000000FFFF0F0F0F0F0FA4
:100620003844443844FC4A4A4A347E0202060602F0
:100630007E027E0263554941633844443C04407E57
:10064000201E2006027E020299A5E7A5991C2A49D0
:100650002A1C4C7201724C304A4D4D30304878485B
:1006600030BC625A463D3E494949007E0101017E47
:100670002A2A2A2A2A44445F444440514A4440409A
:10068000444A51400000FF0103E080FF00000808D9
:100690006B6B083612362436060F090F0600001859
:1006A000180000001010003040FF0101001F010180
:1006B0001E00191D1712003C3C3C3C0000000000CD
:1006C000000020002300260029002C002F0032000B
:1006D0000001000003010601090100000A0B0209E4
:1006E0000C0D0E08070304010000000000000000CC
:1006F00000000000000000000000000000000000FA
:1007000000000000000012111000000000000000B6
:1007100000000000000000000000000000000000D9
:1007200000002100240027002A002D0030003300A3
:1007300001010000040107010A01DB40A4A62EAF5D
:100740002000A1C8D300408DAED580A80000600075
:1007500000000000000000000000000000E00000B9
:10076000000000000000000000000001E0000000A8
:100770000000000000000000000001F00000000088
:1007800000000000000000000003F0000000000076
:10079000000000000000000007F000000000000062
:1007A0000000000000000007F8000000000000004A
:1007B0000000000000000FF800000003C0007E00F1
:1007C0000001E0007F0FF800000003C000FE000001
:1007D00001E000FFEFF800000003C000FE00000190
:1007E000E000FFFFF800000003C000F00000000F71
:1007F000007FFE7FC0000003C000F00000000F007B
:100800003FFE7FF83FF1FBCFFCFEF3BC3DEFE01F66
:10081000FE7FFF7FFBFFDFFEFEFFBC3DEFE01FC65C
:10082000FFFF7FFBFFDFFEFEFFBC3DEFE00FE3C7F6
:10083000FE787BC3DE1EF0FFBC3DEF0007FF87FCA8
:10084000787BC3DE1EF0F83C3DEF0001FFFFF000B7
:100850007BC3C01EF0F03C3DEF0001F37FE03FFBA7
:10086000C3CFFEF0F03C3DEF0003E33F807FFBC3CE
:10087000DFFEF0F03C3DEF0007E73C00787BC3DE95
:100880001EF0F03C3DEF0007FFBE00787BC3DE1E8C
:10089000F0F03C3DEF0007FFFE00787BC3DE1EF06A
:1008A000F03C3DEF000FFFFE007FFBFFDFFEF0F0AE
:1008B0003FFDEFE00FFFFF007FFBFFDFFEF0F03FAB
:1008C000FDEFE00FF9FF003E79F9CF9EF0F01F3DFC
:1008D000E7E01FF1FF000000000000000000000042
:1008E000001F80FF007FFFFFFFFFFFFFFFFFFFE014
:1008F0001C007F007FFFFFFFFEB46D888D18E000B5
:10090000001F007FFFFFFFFE95AD7DB577E0000083
:100910000F007FFFFFFFFEA5AD9D8D19E0000006D3
:10092000007FFFFFFFFEB5ADEDB57EE000000000EB
:1009300000018000000000000000000003800000B3
:100940000000000000000007C000000000000000E0
:10095000000007C00000000000000000000FC00001
:1009600000000000000000001FE000000000000088
:100970000000001FE00000000000000000003FE059
:100980000000000000000000003FF0000000000038
:10099000000000007FF0000000000000001FF87F52
:1009A000F0000000000000003FFE7FF000000000AB
:1009B0000000003FFF7FF0000000000000001FFF6C
:1009C000FBE0000000000000000FFFF9FFC0000086
:1009D000000000000FFFF9FFF80000000000000712
:1009E000FFF1FFFF00000000000003FC73FFFF8029
:1009F000000000000001FE3FFFFF8000000000003B
:100A000000FF1E0FFF000000000000007FFE1FFC23
:100A1000000000000000003FFFFFF80000000000A1
:100A200000000FDFFFE0000000000000001F19FFC2
:100A3000C0000000000000003F3CFF00000000007C
:100A40000000007E7CF800000000000000007FFE37
:100A50007C0000000000000000FFFFFC0000000020
:100A600000000000FFFFFE0000000000000000FF8B
:100A7000FFFE0000000000000001FFEFFE0000008C
:100A80000000000001FFCFFE000000000000000396
:100A9000FF07FE0000000000000003FC07FE00004E
:100AA000000000000003F003FE0000000000000052
:100AB000018000FE000000000000000000007E0039
:100AC0000000000000000000003E000000000000E8
:100AD000000000000C000000000000078000FC0087
:100AE0000003C0000000078001FC000003C00000FC
:100AF00000078001FC000003C0000000078001E047
:100B00000000001E000000078001E00000001E0041
:100B10007FE3F79FF9FDE7787BDFC0FFF7FFBFFDBD
:100B2000FDFF787BDFC0FFF7FFBFFDFDFF787BDFB8
:100B3000C0F0F787BC3DE1FF787BDE00F0F787BCB3
:100B40003DE1F0787BDE0000F787803DE1E0787BD7
:100B5000DE007FF7879FFDE1E0787BDE00FFF7870F
:100B6000BFFDE1E0787BDE00F0F787BC3DE1E07897
:100B70007BDE00F0F787BC3DE1E0787BDE00F0F73C
:100B800087BC3DE1E0787BDE00FFF7FFBFFDE1E0E1
:100B90007FFBDFC0FFF7FFBFFDE1E07FFBDFC07C35
:100BA000F3F39F3DE1E03E7BCFC00000000000007A
:100BB0000000000000FFFFFFFFFFFFFFFFFFFFC07F
:100BC000FFFFFFFFFD68DB111A31C0FFFFFFFFFDD4
:100BD0002B5AFB6AEFC0FFFFFFFFFD4B5B3B1A3355
:100BE000C0FFFFFFFFFD6B5BDB6AFDC08080808084
:100BF00018183C3C7E7E7FFFFFFFF000F000F00005
:100C00000880451020201040C01810402520489032
:100C1000FFFFC3C3FFC3FFC3C3C3C3C3FFC3FFFF00
:100C2000FF00C3C3C3C3C3C3C3C3C3C3FFC3FFFF67
:100C300003C007E00FF01FF80FF007E003C00180CA
:100C4000FFFFFFFFFFFFFFFFFFFFFFFFFFFFFFFFB4
:100C500000FFFFDBFF245AA5010210202008081026
:100C6000204010204080020102010804020101021C
:100C700004081020408080402010080402018004F5
:100C80000201804020100804020108040201010250
:100C90000408102040800102040810204080000059
:100CA0002200250028002B002E0031003400020114
:100CB0000000050108010B010505050507050808E9
:100CC0000808020202020A0A0808040404040101D6
:100CD00001010101010103030303030303030407EB
:100CE00007070C0C0C0C0C0C0C0C02020202060682
:100CF0000606060606060B0B0B0B0B0B0B0B022254
:100D000000FF21006D1F0B2A11241FBECFEFD1E27F
:100D1000DEBFCDBF00E00CBF14E0A0E0B2E0E4E62F
:100D2000FCE500E00BBF02C007900D92A835B107AB
:100D3000D9F72BE0A8E5B4E001C01D92A235B207B7
:100D4000E1F716E0C3E8D6E000E006C0219701090C
:100D5000802FFE010E94D32CC238D10780E0080703
:100D6000A9F70E94F01F0C94202E0C940000089507
:100D700008950895AF92BF92CF92DF92EF92FF92C3
:100D80000F931F93CF93DF936C017B018B01040FB3
:100D9000151FEB015E01AE18BF08C017D10759F04F
:100DA0006991D601ED91FC910190F081E02DC60191
:100DB0001995892B79F7C501DF91CF911F910F917B
:100DC000FF90EF90DF90CF90BF90AF900895FC011F
:100DD000538D448D252F30E0842F90E0821B930BA0
:100DE000541710F0CF96089501970895FC01918D46
:100DF000828D981761F0A28DAE0FBF2FB11D5D9649
:100E00008C91928D9F5F9F73928F90E008958FEFEA
:100E10009FEF0895FC01918D828D981731F0828D9E
:100E2000E80FF11D858D90E008958FEF9FEF0895F5
:100E3000FC01918D228D892F90E0805C9F4F821B59
:100E400091098F739927089585E69AE00E94180703
:100E500021E0892B09F420E0822F0895FC01A48D64
:100E6000A80FB92FB11DA35ABF4F2C91848D90E0CC
:100E700001968F739927848FA689B7892C93A089AF
:100E8000B1898C91837080648C93938D848D981339
:100E900006C00288F389E02D80818F7D80830895CC
:100EA000EF92FF920F931F93CF93DF93EC0181E0BA
:100EB000888F9B8D8C8D98131AC0E889F989808161
:100EC00085FF15C09FB7F894EE89FF896083E88994
:100ED000F98980818370806480839FBF81E090E086
:100EE000DF91CF911F910F91FF90EF900895F62E13
:100EF0000B8D10E00F5F1F4F0F731127E02E8C8DAD
:100F00008E110CC00FB607FCFACFE889F9898081F1
:100F100085FFF5CFCE010E942E07F1CFEB8DEC0FB0
:100F2000FD2FF11DE35AFF4FF0829FB7F8940B8F0E
:100F3000EA89FB8980818062CFCFCF93DF93EC0178
:100F4000888D8823B9F0AA89BB89E889F9898C91B1
:100F500085FD03C0808186FD0DC00FB607FCF7CF6D
:100F60008C9185FFF2CF808185FFEDCFCE010E946D
:100F70002E07E9CFDF91CF91089580E090E0892B93
:100F800029F00E94240781110E94000080E090E077
:100F9000892B49F080E090E0892B29F00E94000025
:100FA00081110E94000080E090E0892B49F080E0F0
:100FB00090E0892B29F00E94000081110E9400001E
:100FC00080E090E0892B49F080E090E0892B29F0C7
:100FD0000E94000081110C9400000895815082311C
:100FE00008F05AC0E82FF0E08827E650F84F8F4FFE
:100FF0000C94D32C1A081E080C08120816084C086A
:10100000210827082B083108350839083F0843080C
:101010004C0847084D085108809180008F778093D5
:1010200080000895809180008F7DF9CF80918000AD
:10103000877FF5CF84B58F7784BD089584B58F7D84
:10104000FBCF8091B0008F778093B000089580919E
:10105000B0008F7DF9CF809190008F7780939000C2
:101060000895809190008F7DF9CF80919000877FC7
:10107000F5CF8091A0008F778093A0000895809194
:10108000A0008F7DF9CF8091A000877FF5CF809160
:1010900020018F77809320010895809120018F7D1A
:1010A000F9CF80912001877FF5CFCF93DF93282F51
:1010B00030E0F901E652F94F8491F901E85AF34F13
:1010C000D491F901E854F34FC491CC23A1F08111DC
:1010D0000E94EE07EC2FF0E0EE0FFF1FE054F94FF7
:1010E000A591B491EC91ED2381E090E009F480E0CA
:1010F000DF91CF91089580E090E0FACF1F93CF93D6
:10110000DF93282F30E0F901E652F94F8491F9017D
:10111000E85AF34FD491F901E854F34FC491CC232A
:10112000A9F0162F81110E94EE07EC2FF0E0EE0FD0
:10113000FF1FE256F34FA591B4918FB7F894EC914D
:10114000111108C0D095DE23DC938FBFDF91CF91C2
:101150001F910895DE2BF8CF9091210289130DC0C5
:10116000EEEFFCE0E4919FEF90932102E230E1F09A
:1011700038F4EE2381F0E13089F060E00C947E08D1
:10118000E43049F110F1E530C1F7909173009D7F93
:1011900090937300F2CF10926E00EFCF90916F009A
:1011A0009D7F90936F00E9CF909170009D7F909309
:1011B000700091E09093B0009091B100987F94609E
:1011C0009093B1001092B300D8CF909171009D7FA1
:1011D00090937100D2CF909172009D7F9093720096
:1011E000CCCFCF93DF9390E0FC01E85AF34F2491EA
:1011F0008854934FFC0184918823D1F090E0880FAC
:10120000991FFC01E05EF84FA591B491FC01E256F4
:10121000F34FC591D491623071F49FB7F8943C912B
:10122000822F809583238C93E8812E2B28839FBF68
:10123000DF91CF9108958FB7F894EC912E2B2C93DA
:101240008FBFF6CFCF92DF92EF92FF92CF936C01D8
:1012500080912102883349F08F3F09F44FC0CF912C
:10126000FF90EF90DF90CF900895EEEFFCE0C491F7
:10127000C7FDF5CF61E088E30E94F108CC2319F0A7
:10128000C23009F041C1F12CE12C60E472E48FE03E
:1012900090E0A70196010E94BE2ABA01A90141501F
:1012A000510961097109C23009F0FCC092E04F3F59
:1012B00051056105710581F07CF060E970ED83E016
:1012C00090E0A70196010E94BE2ABA01A9014150EF
:1012D00051096109710993E08091B100887F892BE0
:1012E0008093B100C23009F49AC10CF091C1CC23B3
:1012F00009F4F8C0C13009F0B2CF1DC188E3809372
:101300002102EEEFFCE0C4918C2FCF3F09F4A7CF70
:10131000C23009F468C060F4CC2379F1C13009F41B
:1013200044C087FD9CCF61E088E30E94F108A8CF0C
:10133000C43009F499C008F478C0C53091F7109210
:101340002001109221018091210188608093210168
:1013500080912101816080932101E0EFFCE0E49124
:10136000F0E0EE0FFF1FE256F34F85919491E0E914
:10137000FCE0E491E093410A7DCF14BC15BC84B538
:10138000826084BD85B5816085BDE0EFFCE0E491BD
:10139000F0E0EE0FFF1FE256F34F85919491E0E9E4
:1013A000FCE0E491E093480A65CF1092800010922F
:1013B000810080918100886080938100809181000C
:1013C000816080938100E0EFFCE0E491F0E0EE0FBB
:1013D000FF1FE256F34F85919491E0E9FCE0E49120
:1013E000E093470A47CF1092B0001092B10080916D
:1013F000B00082608093B0008091B10081608093E2
:10140000B100E0EFFCE0E491F0E0EE0FFF1FE256E8
:10141000F34F859194919093460A8093450AE0E9B1
:10142000FCE0E491E093440A25CF109290001092E2
:10143000910080919100886080939100809191004B
:10144000816080939100E0EFFCE0E491F0E0EE0F2A
:10145000FF1FE256F34F85919491E0E9FCE0E4919F
:10146000E093430AC3E006CF1092A0001092A100BF
:101470008091A10088608093A1008091A10081608B
:101480008093A100E0EFFCE0E491F0E0EE0FFF1F9D
:10149000E256F34F85919491E0E9FCE0E491E0930A
:1014A000420AE8CE4F3F510561057105A1F09CF05D
:1014B00068E478EE81E090E0A70196010E94BE2AE0
:1014C000BA01A901415051096109710994E0C111A2
:1014D00003CF93E003C092E0C111FECE85B5887FB3
:1014E000892B85BD47BD8FEF9FEFDC0180935D0A9F
:1014F00090935E0AA0935F0AB093600A80916E0099
:10150000826080936E00ABCE960150E040E060E0D8
:1015100072E18AE790E00E94BE2ABA01A901415017
:10152000510961097109C130D9F480918100887F26
:1015300081608093810050938900409388008FEFF1
:101540009FEFDC018093590A90935A0AA0935B0A9B
:10155000B0935C0A80916F00826080936F007FCEB1
:10156000C330D9F480919100887F8160809391008D
:1015700050939900409398008FEF9FEFDC01809388
:10158000510A9093520AA093530AB093540A80913F
:10159000710082608093710062CEC430D9F4809172
:1015A000A100887F81608093A1005093A90040939F
:1015B000A8008FEF9FEFDC0180934D0A90934E0AB5
:1015C000A0934F0AB093500A80917200826080937A
:1015D000720045CEC53009F085CE80912101887F0B
:1015E00081608093210150932901409328018FEF5E
:1015F0009FEFDC018093490A90934A0AA0934B0A1B
:10160000B0934C0A8091730082608093730027CE60
:10161000C43059F20CF4ACCFC53029F320CE40933E
:10162000B3008FEF9FEFDC018093550A9093560A29
:10163000A093570AB093580A8091700082608093FB
:1016400070000DCE90917B00977F90937B00865326
:10165000806480937C0080917A00806480937A001B
:1016600080917A0086FDFCCF80917800909179007E
:1016700008953FB7F89480910F0590911005A091BF
:101680001105B091120526B5A89B05C02F3F19F092
:101690000196A11DB11D3FBFBA2FA92F982F8827F2
:1016A000BC01CD01620F711D811D911D42E0660FCD
:1016B000771F881F991F4A95D1F708958F929F929F
:1016C000AF92BF92CF92DF92EF92FF924B015C01FB
:1016D0000E94390B6B017C010E94390B6C197D094A
:1016E0008E099F09683E734081059105A8F321E0AA
:1016F000821A9108A108B10888EEC80E83E0D81EAE
:10170000E11CF11C81149104A104B10429F7FF909C
:10171000EF90DF90CF90BF90AF909F908F90089503
:101720002FB7F89460910B0570910C0580910D0511
:1017300090910E052FBF08952091C004260F3327E6
:10174000331F21323105ECF42091E404FC0190E0D8
:1017500080E0243069F082E00895A091C0042191D6
:10176000AC0140565B4FA40FB52FB11D2C930196D1
:10177000861798F38091C004680F6093C00480E0DE
:10178000089581E008951092E40481E08093E604D6
:101790001092E50461E084E10E947E0861E085E149
:1017A0000E947E08E9EBF0E080818E7F808380815B
:1017B0008D7F808388E48093B80085E48093BC00AB
:1017C0000895CF93DF9391E090939F048823B9F01D
:1017D000C091B800D091BA008091BC008A7B809300
:1017E000BC0060E084E10E947E0860E085E10E9428
:1017F0007E080E94C30BD093BA00C093B800DF915B
:10180000CF910895E091190580911805E81730F4FB
:10181000F0E0E658FB4F808190E008958FEF9FEF56
:10182000089590911905809118052FEF3FEF9817B3
:1018300048F4E92FF0E0E658FB4F208130E09F5F4D
:1018400090931905C9010895809118059091190583
:10185000891B990B0895CF92DF92EF92FF920F931D
:101860001F93CF93DF937C01CB018A012091640AFF
:10187000222389F0EB016B01C40ED51ECC15DD05CA
:1018800069F06991D701ED91FC910190F081E02D13
:10189000C7011995F3CF642F0E949C0BC801DF91FB
:1018A000CF911F910F91FF90EF90DF90CF9008950F
:1018B000CF93DF931F92CDB7DEB769832091640A7F
:1018C0002223F9F02091610A203258F021E030E023
:1018D000FC013383228390E080E00F90DF91CF9171
:1018E00008958091620AE82FF0E0E65AFB4F998153
:1018F00090838F5F8093620A8093610A81E090E019
:10190000ECCF61E0CE0101960E949C0BF7CFCF9205
:10191000DF92EF92FF920F931F93CF93DF93D091BB
:10192000610A81E0D13208F09CC0C091630A0E9434
:10193000390B6B017C018091E40481116CC082E061
:101940008093E40481E08093E6048FEF8093E304C6
:1019500010920805D0930705AAE5B4E0E7EEF4E09D
:1019600080E0D8138DC01092090580910905CC0F35
:10197000C82BC09309058091E504813009F084C02B
:101980001092E5040E94390B6B017C0180910905DE
:101990008093BB0080919B0490919C04A0919D0436
:1019A000B0919E04892B8A2B8B2BA1F00E94390BBE
:1019B00000919B0410919C0420919D0430919E0401
:1019C0006C197D098E099F09061717072807390723
:1019D00008F442C08091BC0083FDD8CF85EC809391
:1019E000BC000E94390B6B017C018091E4048230C1
:1019F00009F44CC08091E3048F3F09F469C08091E1
:101A0000E304803209F466C08091E304803309F472
:101A100063C084E026C080919B0490919C04A091B7
:101A20009D04B0919E04892B8A2B8B2B09F483CFC4
:101A30000E94390B00919B0410919C0420919D04FD
:101A400030919E046C197D098E099F0906171707AE
:101A50002807390708F06FCF80919A040E94E10BA4
:101A600085E01092620A1092610A1092640ADF9176
:101A7000CF911F910F91FF90EF90DF90CF9008953D
:101A80009D9191938F5F6DCF85EEA9CF80919B043F
:101A900090919C04A0919D04B0919E04892B8A2B67
:101AA0008B2B09F4A2CF0E94390B00919B0410915B
:101AB0009C0420919D0430919E046C197D098E092F
:101AC0009F09061717072807390708F08ECFC4CFDC
:101AD00080E0C7CF82E0C5CF83E0C3CF0895FC018B
:101AE0006370668B8481958126813781613039F0FE
:101AF000633029F091878087338722870895318763
:101B000020879387828708952F923F924F925F920A
:101B10006F927F928F929F92AF92BF92CF92DF92FD
:101B2000EF92FF920F931F93CF93DF93CDB7DEB762
:101B30006A970FB6F894DEBF0FBECDBF9A8F898F1C
:101B40007A8369834A01D22E18870F833701BC2C10
:101B5000DC0159962D913C915A972115310509F0D8
:101B600015C118968D919C911997681779070CF0FB
:101B7000D7C11A968D919C91481759070CF0D0C186
:101B80004C2C512CB6E0CB9E600D711D11247C872E
:101B90006B87161617060CF0C3C1EA2DF0E0FA8722
:101BA000E98793E0EE0FFF1F9A95E1F7F88BEF8737
:101BB000CF01840F951F181619060CF0B1C1A98D1D
:101BC000BA8D58968C91811104C0BFEABD1508F4F6
:101BD000D394A98DBA8DED91FC9111970284F38570
:101BE000E02DCD011995B5E0DB9EC0011124E981FE
:101BF000FA81FC83EB83312C212C9C0120543E4F35
:101C0000388F2F8B4A2D50E05E8B4D8BEF89F88DEE
:101C1000E20DF31D44919E828D82D12CC12C6981ED
:101C20007A81620D731D7A8B698B842F90E09C8B77
:101C30008B8BE98DFA8DA081B18140FF82C0F1E0EC
:101C4000BF126FC0AF126DC01C96ED91FC912F8139
:101C50003885A4014C0D5D1D69897A89898D9A8D1D
:101C60001995EB89FC89F595E7954E2F5FEFC51A1D
:101C7000D50A6D817E818D899E89680F791F7E834B
:101C80006D8398E0C916D10481F6AFEF2A1A3A0A9B
:101C9000EB81FC81E40DF51DFC83EB83F5E02F1651
:101CA000310409F0B3CF2F81388526153705B9F0F7
:101CB000A98DBA8DED91FC91B1E0BB1257C0AB126A
:101CC00055C069817A816B5F7F4F0088F189E02D73
:101CD000830128E030E0A401898D9A8D1995A98DA2
:101CE000BA8DED91FC9111970688F789E02DCD0111
:101CF0006A960FB6F894DEBF0FBECDBFDF91CF91CD
:101D00001F910F91FF90EF90DF90CF90BF90AF9019
:101D10009F908F907F906F905F904F903F902F900B
:101D200019941E96ED91FC91EF80F88409851A852F
:101D300092014D815E816B817C81898D9A8D19958F
:101D400090CF2F8138852615370509F48ACF31E0E9
:101D5000B31207C0A31205C01C96ED91FC9193012C
:101D600078CF1E96ED91FC917301E0CF6B857C8559
:101D7000641975090684F785E02D73010F851889AC
:101D80009201A401898D9A8D1995A9CFF9013496F4
:101D90009491329745915491D91AB7E0DB9E400D4A
:101DA000511D1124F901259134913C8B2B8BFA01A3
:101DB00025903490FA013296749031963491398B93
:101DC000329664903196449041E04C1518F04A15D3
:101DD00008F07FC0662D062C000C770B7C836B838C
:101DE000842D042C000C990B9E838D83A98DBA8DB4
:101DF000ED91FC9111970284F385E02DCD011995A9
:101E0000512CD12CC12CEA2DF0E0FA87E9872B2D3B
:101E100030E03C872B87A401440D511D47FC5A95A7
:101E2000588F4F8B69817A81660D711D67FC7A9599
:101E30007E876D877989C71608F051CF2C2D30E049
:101E40004D815E81420F531FA985BA854A9FC0010B
:101E50004B9F900D5A9F900D1124FC01E80DF91D28
:101E6000F88BEF87852D612C4F89588D420F531FBA
:101E70005E8B4D8B671408F050C044244394480E89
:101E8000877041F4C1010196EB89FC89E20DF31DD5
:101E9000D4901C01D7FE19C0A98DBA8DED91FC918B
:101EA000662D70E0B1E0BB1219C0AB1217C02D85D2
:101EB0003E85620F731F0484F585E02D2F813885E0
:101EC0004D895E89898D9A8D1995DD0C6394842DD9
:101ED000D1CF1E821D821C821B8288CF4B815C81E8
:101EE000640F751FAB85BC856A9FC0016B9F900D09
:101EF0007A9F900D112469817A81680F791F068479
:101F0000F785E02DEF80F88409851A859D014F85BE
:101F10005889898D9A8D1995D8CF570CC3948ACF3B
:101F20006A960FB6F894DEBF0FBECDBFDF91CF919A
:101F30001F910F91FF90EF90DF90CF90BF90AF90E7
:101F40009F908F907F906F905F904F903F902F90D9
:101F500008958F929F92AF92CF92EF92FF920F933C
:101F60001F93CF93DF93EC01262F898D9A8D0097D5
:101F700009F051C06A30D1F41D861C868D8948E075
:101F8000849F900111248E859F85820F931F9F87C8
:101F90008E8781E090E0DF91CF911F910F91FF90AC
:101FA000EF90CF90AF909F908F9008956D3089F310
:101FB000CC88AD888F898823C1F08C859D8536E0DB
:101FC000C39E800D911D11244885598548175907D6
:101FD00064F44E855F851D861C8638E0A39EC00193
:101FE0001124840F951F9F878E87EA88FB880889B4
:101FF00019894E855F856C857D85CE010E94840D93
:102000002C898C859D8546E0249F800D911D11248F
:102010009D878C87BECF6A3069F41D861C86FC01C3
:102020003896E4912D898E859F85E29F800D911DC4
:102030001124ADCF6D3009F4ACCFFC01349634914E
:10204000631708F4A6CF3296E491E61708F4A1CFFF
:10205000FC01329685909490462F431B342F47E025
:10206000349F800C911C1124F401329634913196E6
:10207000E4913323A9F1EE2399F1CC88F40135964C
:10208000E491AD884F89442301F10E2E000CFF0B23
:10209000E30FF11DCE9EA001CF9E500D11246C8543
:1020A0007D85460F571F68857985641775076CF421
:1020B0004E855F851D861C86FC013896E491AE9E98
:1020C000400D511D11245F874E87EA88FB880889DF
:1020D00019894E855F856C857D85CE010E94840DB2
:1020E000F4013496E4912C898C859D85E29F800DC6
:1020F000911D11248DCF6F927F928F929F92AF92FC
:10210000BF92CF92DF92EF92FF920F931F93CF93E4
:10211000DF93EC016B015A0139014801E881F98133
:102120000284F385E02D1995E881F9810288F3890D
:10213000E02D87019301A501B601CE011995A501F6
:10214000480D591D41505109E881F9810288F389F0
:10215000E02D9301B601CE011995E881F98100883F
:10216000F189E02D9401A501B601CE011995C60CA7
:10217000D71CB60161507109E881F9810088F189A5
:10218000E02D9401A501CE011995E881F981068819
:10219000F789E02DCE01DF91CF911F910F91FF9034
:1021A000EF90DF90CF90BF90AF909F908F907F90F7
:1021B0006F9019946F927F928F929F92AF92BF927D
:1021C000CF92DF92EF92FF920F931F93CF93DF9303
:1021D0005C01EB016A01490138018701DC01ED91E5
:1021E000FC916217730719F5641675062CF0962D8D
:1021F000872D3A01C92ED82E9601261937092F5F4F
:102200003F4F048CF58DE02DA301BE01C50119954A
:10221000DF91CF911F910F91FF90EF90DF90CF90C2
:10222000BF90AF909F908F907F906F9008954615CC
:10223000570591F42617370724F0892D4B01C22F3B
:10224000D82F9E01281939092F5F3F4F068CF78D33
:10225000E02DA601B401DACF0284F385E02D1995B3
:10226000D501ED91FC910488F589E02D830194015D
:10227000A601BE01C5011995D501ED91FC91068815
:10228000F789E02DC501DF91CF911F910F91FF904C
:10229000EF90DF90CF90BF90AF909F908F907F9006
:1022A0006F901994EF92FF920F931F93DC011A968F
:1022B0000D911C911B9718962D913C911997ED91BA
:1022C000FC9100A0F1A1E02D7B0150E040E070E026
:1022D00060E019951F910F91FF90EF9008954F9234
:1022E0005F926F927F928F929F92AF92BF92CF92A6
:1022F000DF92EF92FF920F931F93CF93DF936C01C6
:102300002B015A0139014801DC01ED91FC91028455
:10231000F385E02D1995E201640C751CD601ED9151
:10232000FC91C615D7055CF40088F189E02D870182
:102330009401A501BE01C60119952196EFCF06882B
:10234000F789E02DC601DF91CF911F910F91FF908A
:10235000EF90DF90CF90BF90AF909F908F907F9045
:102360006F905F904F9019948F929F92AF92BF920F
:10237000CF92DF92EF92FF920F931F93CF93DF9351
:10238000EC015B014A016901E881F9810284F3856E
:10239000E02D199595012C0D3D1D21503109E88145
:1023A000F9810488F589E02D78018401A401B50143
:1023B000CE011995E881F9810688F789E02DCE01D3
:1023C000DF91CF911F910F91FF90EF90DF90CF9011
:1023D000BF90AF909F908F9019948F929F92AF92E1
:1023E000BF92CF92DF92EF92FF920F931F93CF9302
:1023F000DF93EC015B014A0169017801E881F98111
:102400000284F385E02D1995C80CD91C8601015072
:102410001109E881F9810488F589E02D9501A4016D
:10242000B501CE011995E881F9810688F789E02D7B
:10243000CE01DF91CF911F910F91FF90EF90DF9030
:10244000CF90BF90AF909F908F901994EF92FF9292
:102450000F931F93DC01ED91FC9100A0F1A1E02D01
:1024600019951F910F91FF90EF9008950F931F936F
:10247000DC01ED91FC91068CF78DE02D19951F91F3
:102480000F9108950F931F93DC01ED91FC91048C43
:10249000F58DE02D19951F910F910895DC01ED91B7
:1024A000FC910084F185E02D19943F924F925F9248
:1024B0006F927F928F929F92AF92BF92CF92DF9254
:1024C000EF92FF920F931F93CF93DF9300D01F9251
:1024D000CDB7DEB75C013B016A014901280187E005
:1024E000480E511C93E0559447949A95E1F7C70123
:1024F000840F951F9A838983F12CE12C312C1C8247
:102500001B828B819C810817190719F18770992705
:10251000330C892B61F4EB81FC8183E0F595E79521
:102520008A95E1F7EE0DFF1DE80DF91D349037FE99
:102530000AC021E030E0A6016B817C81660D771D29
:10254000C5010E944E128B819C8101969C838B83D6
:10255000D8CF9FEFC91AD90AE40CF51C89819A815A
:102560008C159D0561F60F900F900F900F90DF91E5
:10257000CF911F910F91FF90EF90DF90CF90BF9080
:10258000AF909F908F907F906F905F904F903F9013
:1025900008952F923F924F925F926F927F928F9207
:1025A0009F92AF92BF92CF92DF92EF92FF920F93E2
:1025B0001F93CF93DF9300D000D0CDB7DEB73C019F
:1025C0006A013E832D83FC82EB825801A41AB50A6E
:1025D000B7FE03C0B194A194B1088D809E80861A85
:1025E000970A97FE03C09194819491088A149B04E2
:1025F0005CF0902F812F0D811E819D838E839C2DF9
:102600008D2D6B01692F782F0C151D055CF09D81B8
:102610008E817E836D83692F782F902F812F860185
:10262000C92ED82E1601201A310A2B012D813E8188
:10263000421A530A57FE03C0519441945108710144
:1026400037FE03C03FEFE31AF30AF594E7948D8158
:102650009E81861797075CF5A1E0B0E0BA83A98355
:10266000C016D1064CF1D301ED91FC910484F5859F
:10267000E02D2B813C81A8016D817E818A149B0411
:102680001CF04D815E81B801C3011995E418F5086D
:10269000F7FE0AC02D813E8189819A81280F391F5A
:1026A0003E832D83E20CF31C0F5F1F4FD9CF2FEF1A
:1026B0003FEF3A832983D4CF26960FB6F894DEBF36
:1026C0000FBECDBFDF91CF911F910F91FF90EF9083
:1026D000DF90CF90BF90AF909F908F907F906F9042
:1026E0005F904F903F902F900895EF92FF920F933D
:1026F0001F93CF93DF93EC01EC80FD806E157F0577
:102700000CF070C057FF04C0240F351F50E040E0AC
:102710008E819F81FA01E20FF31F8E179F071CF431
:102720009C01241B350B121613060CF05BC0922F74
:10273000842F8695869586958E9DD0018F9DB00DB0
:1027400011246A0F7B1FAF8DB8A1A60FB71F47706A
:1027500049F188E0841B482F682F70E0FB01E854A2
:10276000FE4FE491281708F063C0621B71092FEF38
:1027700030E002C0359527956A95E2F7E2230130F3
:10278000110539F0B0F10230110561F58C91E8279F
:1027900002C08C91E82BEC93941720F12C813D81A1
:1027A000A20FB31FE92FE41BE83078F002301105C7
:1027B00021F58E2F9C9190959C932C813D81A20FA9
:1027C000B31F88508830B0F7E770EE2359F0F0E07F
:1027D000E055FE4FE49101301105F9F010F102309F
:1027E000110519F1DF91CF911F910F91FF90EF909B
:1027F0000895E0958C91E823CECF81E00115110575
:1028000009F480E081959E2F8C932C813D81A20F4D
:10281000B31F98509830C0F7D7CF8C91E82BEC932A
:10282000E1CFE0958C91E823FACF8C91E827F7CFA0
:102830000130110509F4ADCFE0F20230110509F4C1
:10284000A5CFAE0DBF1DAECF0F931F93CF93DF93D8
:1028500077FF04C0260F371F70E060E0DC0114969C
:10286000CD91DC91FB01E20FF31FCE17DF071CF4C3
:102870009E01261B370B121613064CF5FA0157FD65
:102880003796A3E0F595E795AA95E1F7EC9FD0017F
:10289000ED9FB00DFC9FB00D11246A0F7B1FDC0172
:1028A0005F96ED91FC91E60FF71F4770552781E089
:1028B00090E001C0880F4A95EAF7482F01301105D2
:1028C00059F0A8F02E0F3F1F02301105E1F0DF9103
:1028D000CF911F910F9108952E0F3F1FE217F3071D
:1028E000B1F38191DF011197842B8C93F7CF809501
:1028F0002E0F3F1FE217F30751F39191DF0111975C
:1029000098239C93F7CFE217F30709F38191DF0136
:10291000119784278C93F7CF0F931F93FA01DC0153
:1029200056964C9156974230E9F04330A1F1413030
:1029300061F514964D915C91DA01AE1BBF0BFD0160
:10294000E21BF30B77FD0BC0DC0116964D915C91F9
:102950006417750724F4AB01BF010E9424141F9172
:102960000F91089514964D915C91DA01A61BB70B57
:10297000BD0161507109DC0116964D915C91DA013F
:10298000AE1BBF0BFD01E21BF30B77FDE8CFAF01E0
:102990000E947513E4CF16964D915C91DA01A61B47
:1029A000B70BBD0161507109CDCF0F931F93FA0191
:1029B000DC0156964C9156974230A9F0433091F184
:1029C000413019F514964D915C91DA01AE1BBF0BA5
:1029D000FD013197F7FD04C0AB01BF010E947513E3
:1029E0001F910F91089514964D915C91DA01A61BE9
:1029F000B70BBD01DC0116964D915C91DA01AE1B5F
:102A0000BF0BFD013197621B730BF7FDE9CFDC01B2
:102A100016964D915C91E417F50714F7AF010E94EB
:102A20002414DECF16964D915C91DA01A61BB70BEC
:102A3000BD01621B730BCECFFC0177FD64C08085A6
:102A40009185681779070CF05EC057FD5CC08285E0
:102A50009385481759070CF056C086898230B1F02B
:102A6000833029F1813041F484819581841B950B59
:102A7000AB01BC01615071092130310509F108F445
:102A800043C02230310509F463C0089584819581E3
:102A9000DC01A61BB70BBD016150710986819781CE
:102AA000DC01A41BB50BAD0141505109E5CF868176
:102AB0009781861B970BBA01AC0141505109DCCFBD
:102AC000CA0157FD0796A3E095958795AA95E1F76A
:102AD000A481B5818A9F90018B9F300D9A9F300D04
:102AE0001124620F731F078CF0A1E02DE60FF71F72
:102AF0004770552721E030E001C0220F4A95EAF7E0
:102B00008081822B80830895CA0157FD079633E0A8
:102B1000959587953A95E1F7A481B5818A9F9001B3
:102B20008B9F300D9A9F300D1124620F731F078CFD
:102B3000F0A1E02DE60FF71F4770552781E090E0E8
:102B400001C0880F4A95EAF7809590818923DACFF2
:102B5000CA0157FD079623E0959587952A95E1F7D9
:102B6000A481B5818A9F90018B9F300D9A9F300D73
:102B70001124620F731F078CF0A1E02DE60FF71FE1
:102B80004770552721E030E001C0220F4A95EAF74F
:102B900080818227B7CF08958EBD00000DB407FE57
:102BA000FDCF8EB50895EF92FF920F931F93CF93B1
:102BB000DF937C01C62F80912B0B90912C0B0097FB
:102BC00009F459C020912F0B31E03093640A20930F
:102BD000630A1092620A1092610ADC01ED91FC9185
:102BE0000190F081E02D60E019958701EE24E394D7
:102BF000F12CD1E0C15080912B0B90912C0BCF3F49
:102C000091F1B0E2EB16F104D8F00E94870C8091AC
:102C10002B0B90912C0B20912F0BD093640A2093B7
:102C2000630A1092620A1092610ADC01ED91FC9134
:102C30000190F081E02D60E01995EE24E394F12CF1
:102C400080912B0B90912C0BF8016491DC01ED919C
:102C5000FC910190F081E02D1995BFEFEB1AFB0A72
:102C60000F5F1F4FC7CFDF91CF911F910F91FF9043
:102C7000EF900C94870CE0913B0BF0913C0B908112
:102C80008091410B8095892380838701C15008F48E
:102C900038C0F80184912091290B30912A0B232B05
:102CA00029F00E94CC150F5F1F4FF0CF28E030E0D5
:102CB00040E8E091370BF091380B90913F0B582F83
:102CC0005423D9F05081952B9083E091390BF091EA
:102CD0003A0B90815091400B952B9083E091390BEA
:102CE000F0913A0B50819091400B909595239083F1
:102CF000469521503109E9F6D6CF5081909595231C
:102D0000E3CFDF91CF911F910F91FF90EF90089546
:102D10001F93CF93DF93EC018D8D9E8D009721F152
:102D2000162F29A131E03093640A2093630A109290
:102D3000620A1092610ADC01ED91FC910190F08130
:102D4000E02D60E019958D8D9E8DDC01ED91FC915B
:102D50000190F081E02D612F19958D8D9E8DDF9171
:102D6000CF911F910C94870CADA5BEA59C918BA90A
:102D7000809589238C938B8D9C8D892B31F0862FA8
:102D8000DF91CF911F910C94CC1528E030E080E8C2
:102D9000A9A5BAA599A9462F4823C1F04C91942B17
:102DA0009C93ABA5BCA59C914AA9942B9C93ABA5E5
:102DB000BCA54C919AA9909594239C9386952150FB
:102DC000310931F7DF91CF911F9108954C91909582
:102DD0009423E6CF8CBD9DBD0895DF92EF92FF92C4
:102DE0000F931F93CF93DF9380912B0B90912C0B1C
:102DF000892B09F498C02091430B3091440B4091EA
:102E0000450B5091460B60E074E284EF90E00E9425
:102E1000F02A2051310941095109569547953795B6
:102E200027952093B80065E08FEF9CE00E94D315B2
:102E30006091120B61508EE09BE00E9488162091F9
:102E4000140B3091150BC901079697FD079633E0D7
:102E5000959587953A95E1F72091120B3091130BD8
:102E6000829F8001839F100D929F100D1124C091AD
:102E70002D0BD0912E0B80912B0B90912C0B0C0FC6
:102E80001D1F009709F48FC020912F0B31E0309364
:102E9000640A2093630A1092620A1092610ADC01AC
:102EA000ED91FC910190F081E02D60E41995EE2404
:102EB000E394F12CDD24D39480912B0B90912C0B77
:102EC0000C171D0709F446C0B0E2EB16F104D8F068
:102ED0000E94870C80912B0B90912C0B20912F0B33
:102EE000D092640A2093630A1092620A1092610AD7
:102EF000DC01ED91FC910190F081E02D60E41995E9
:102F0000EE24E394F12C80912B0B90912C0B699182
:102F1000DC01ED91FC910190F081E02D1995BFEF5E
:102F2000EB1AFB0AC9CF8091290B90912A0B892BB0
:102F300031F080914C0B90914D0B0E94EA16E0917C
:102F40003D0BF0913E0B90818091420B809589233F
:102F5000808369CF0E94870C80912B0B90912C0B62
:102F6000892B09F461C02091470B3091480B4091A7
:102F7000490B50914A0B60E074E284EF90E00E94AC
:102F8000F02A205131094109510956954795379545
:102F900027952093B800DF91CF911F910F91FF905B
:102FA000EF90DF900895E0913B0BF0913C0B808116
:102FB0009091410B892B80830C171D0769F2899131
:102FC0002091290B30912A0B232B19F00E94CC154C
:102FD000F3CF28E030E040E8E091370BF091380B78
:102FE00090913F0B582F5423D9F05081952B90830B
:102FF000E091390BF0913A0B90815091400B952B59
:103000009083E091390BF0913A0B50819091400BF5
:10301000909595239083469521503109E9F6CCCFC0
:10302000508190959523E3CFE0913D0BF0913E0BBD
:1030300080819091420B892B8083ADCF1F93CF93DA
:10304000DF93EC01162F8D8D9E8D892BB1F12DA96B
:103050003EA94FA958AD60E074E284EF90E00E9471
:10306000F02A205131094109510956954795379564
:1030700027952093B80066EA111167EACE010E94F5
:1030800088168D8D9E8D892B41F129AD3AAD4BADC2
:103090005CAD60E074E284EF90E00E94F02A205181
:1030A0003109410951095695479537952795209340
:1030B000B800DF91CF911F9108958B8D9C8D892B46
:1030C00021F08EAD9FAD0E94EA16EFA5F8A9908180
:1030D0008CA9809589238083CECFEFA5F8A9808124
:1030E0009CA9892B8083E5CF089590E080E0089526
:1030F000CF93DF93EC016115710509F07AC086E189
:1031000090E090930D0280930C0287E190E0909301
:103110000B0280930A0288E190E090930902809369
:10312000080289E190E090930702809306028AE109
:1031300090E090930502809304028BE190E09093DD
:103140000302809302028CE190E09093010280934D
:103150000002C930D10509F09DC061E080910C02E8
:103160000E947E0861E080910A020E947E0861E070
:10317000809108020E947E0861E0809106020E9410
:103180007E0860E0809104020E947E0861E08091E8
:1031900002020E947E0861E0809100020E947E0887
:1031A000C430D10509F0B6C060E080910C020E94E5
:1031B0007E0861E080910A020E947E0861E08091B1
:1031C00008020E947E0860E0809106020E947E084C
:1031D00060E0809104020E947E0861E0809102021A
:1031E0000E947E0861E080910002DF91CF910C94F3
:1031F0007E086130710539F58DE190E090930D0204
:1032000080930C028EE190E090930B0280930A026F
:103210008FE190E0909309028093080280E290E0B1
:10322000909307028093060281E290E0909305025A
:103230008093040282E290E0909303028093020262
:1032400083E290E082CF84E290E090930D0280933D
:103250000C0285E290E090930B0280930A0286E2D2
:1032600090E0909309028093080287E290E09093A7
:1032700007028093060288E290E090930502809313
:10328000040289E290E090930302809302028AE2B2
:1032900090E05BCFC830D105B1F461E080910C02C1
:1032A0000E947E0861E080910A020E947E0861E02F
:1032B000809108020E947E0861E0809106020E94CF
:1032C0007E0861E05FCFC730D10509F042C061E000
:1032D00080910C020E947E0861E080910A020E94A7
:1032E0007E0861E0809108020E947E0860E0809183
:1032F00006020E947E0860E0809104020E947E081F
:1033000060E0809102020E947E0860E080910002ED
:103310000E947E08C330D10509F041C061E0809170
:103320000C020E947E0861E080910A020E947E08E1
:1033300061E0809108020E947E0861E080910602AF
:103340000E947E0860E0809104020E947E0860E096
:1033500045CFC630D105E9F561E080910C020E94AD
:103360007E0860E080910A020E947E0861E0809100
:1033700008020E947E0861E0809106020E947E0899
:1033800061E0809104020E947E0861E08091020267
:103390000E947E0861E0809100020E947E08C23097
:1033A000D10509F05AC061E080910C020E947E08AC
:1033B00061E080910A020E947E0860E0809108022C
:1033C0000E947E0861E0809106020E947E0861E012
:1033D000BACFC530D10509F0E3CE61E080910C028F
:1033E0000E947E0860E080910A020E947E0861E0EF
:1033F000809108020E947E0861E0809106020E948E
:103400007E0860E0809104020E947E0861E0809165
:1034100002020E947E0861E0809100020E947E0804
:10342000CD2BF1F561E080910C020E947E0861E0F5
:1034300080910A020E947E0861E0809108020E9449
:103440007E0861E0809106020E947E0861E0809122
:1034500004020E947E0861E01DC0C130D10501F761
:1034600060E080910C020E947E0861E080910A0277
:103470000E947E0861E0809108020E947E0860E060
:10348000809106020E947E0860E0809104020E9402
:103490007E0860E0809102020E947E0860E0A3CE78
:1034A000DF91CF9108952091140B3091150BC90134
:1034B000079697FD079623E0959587952A95E1F75E
:1034C0002091120B3091130B829FA001839F500D0E
:1034D000929F500D112470E060E080912D0B90912F
:1034E0002E0B0C94192E0E94142EFB01019000202B
:1034F000E9F73197AF01461B570BDC01ED91FC91C9
:103500000280F381E02D19948F929F92AF92BF9227
:10351000EF92FF920F931F93CF93DF93CDB7DEB758
:10352000A1970FB6F894DEBF0FBECDBF7C01FA01A4
:10353000CB0119A2223008F42AE08E010F5D1F4F43
:10354000822E912CB12CA12CBF01A50194010E94C7
:10355000F02AF901CA016A300CF5605DD8016E935A
:103560008D01232B242B252B79F790E080E01097F9
:1035700021F0BD01C7010E94751AA1960FB6F894FB
:10358000DEBF0FBECDBFDF91CF911F910F91FF9096
:10359000EF90BF90AF909F908F900895695CDECFC1
:1035A000CF92DF92EF92FF920F931F93CF93DF930F
:1035B000EC016A017B01E881F9810190F081E02D45
:1035C0006DE219958C0144275527BA014C195D0904
:1035D0006E097F092AE0CE010E94841A800F911F94
:1035E000DF91CF911F910F91FF90EF90DF90CF90DF
:1035F0000895CF93DF93AC01990F660B770B77FF9C
:1036000010C085E69AE00E94D01AEC016FE772E0E4
:1036100085E69AE00E94751A8C0F9D1FDF91CF916D
:1036200008952AE085E69AE00E94841AEECFAB0165
:10363000770F660B770B77FD0C94D01A2AE00C9469
:10364000841A0F931F93CF93DF93EC010E94751A96
:103650008C016FE772E0CE010E94751A800F911FF6
:10366000DF91CF911F910F9108954F925F926F92CA
:103670007F929F92AF92BF92CF92DF92EF92FF9292
:103680000F931F93CF93DF931092200210921F028B
:1036900080911D0290911E028F30910509F08CC01F
:1036A00010921E0210921D0262E872E085E69AE016
:1036B0000E94211B0E94900B60933D0A70933E0A6A
:1036C00080933F0A9093400AD0E0C0E085E0C82E86
:1036D000D12CE12CF12C9AE0992E20EAB22E37E081
:1036E000A32E01E010E00E94662AA70196010E9425
:1036F000BE2A2B013C012FEF421A520A620A720ABB
:1037000040911D0250911E0280911F029091200253
:10371000949E9001959E300D1124BC9EF001BD9E9B
:10372000F00D1124E20FF31FE35CFA4F91838083C5
:10373000138212821482A5825186408623E04216AB
:10374000510409F03FC01783068308969093200226
:1037500080931F022196C830D10529F60E94662A5F
:10376000C0911D02D0911E0228E030E040E050E000
:103770000E94BE2A2AE02C9FF0012D9FF00D1124FB
:1037800020EA269FA001279F500D1124E40FF51F6A
:10379000E35CFA4F11861086DF91CF911F910F9154
:1037A000FF90EF90DF90CF90BF90AF909F907F9071
:1037B0006F905F904F900895019690931E028093B2
:1037C0001D0282CF17821682C0CFCF93DF938091E4
:1037D000580490915904892B99F50E94531A81E05D
:1037E0008093220B8093230B81E090E09093210B38
:1037F0008093200B90931F0B80931E0B82EE9FEF04
:1038000090931B0B80931A0B8AE090E090931D0B12
:1038100080931C0B60EE72E08EE09BE00E94211B07
:103820006FEE72E08EE09BE00E94751A60910E02CE
:1038300070910F028EE09BE00E94171B0E94ED1614
:1038400084E00E945508892B71F48091580490916E
:103850005904892B41F460E971E080E090E00E9416
:103860005E0B10921C0284E00E945508892B09F01F
:103870004EC0C0915804D0915904C130D10509F00F
:1038800046C060E971E080E090E00E945E0B8091AC
:103890000E0290910F02019709F0B4C082E090E00F
:1038A00090930F0280930E020E94531A81E080933E
:1038B000220B8093230B81E090E09093210B809367
:1038C000200B90931F0B80931E0B82EE9FEF909323
:1038D0001B0B80931A0B8AE090E090931D0B809352
:1038E0001C0B6FEF72E08EE09BE00E94211B6EE0EC
:1038F00073E08EE09BE00E94751A60910E02709159
:103900000F028EE09BE00E94171B0E94ED1683E0E1
:103910000E945508892BB9F50E94531A81E08093C3
:10392000220B8093230BC1E0D0E0D093210BC093F6
:10393000200BD0931F0BC0931E0B82EE9FEF909332
:103940001B0B80931A0B8AE090E090931D0B8093E1
:103950001C0B6FEF72E08EE09BE00E94211B6EE07B
:1039600073E08EE09BE00E94751A60910E027091E8
:103970000F028EE09BE00E94171B0E94ED16D09371
:103980005904C093580482E00E945508892BB9F568
:103990000E94531A81E08093220B8093230B81E0D5
:1039A00090E09093210B8093200B90931F0B8093BA
:1039B0001E0B82EE9FEF90931B0B80931A0B8AE0F5
:1039C00090E090931D0B80931C0B60EE72E08EE0F4
:1039D0009BE00E94211B6FEE72E08EE09BE00E9454
:1039E000751A60910E0270910F028EE09BE00E94AA
:1039F000171B0E94ED161092590410925804DF9183
:103A0000CF910895D0930F02C0930E024DCF85ED54
:103A10008093BC0080919B0490919C04A0919D0494
:103A2000B0919E040796A11DB11D23E0B695A79500
:103A3000979587952A95D1F72091BC0024FD03C066
:103A40001092E404089540919B0450919C0460916D
:103A50009D0470919E04452B462B472B69F30097DC
:103A6000A105B10541F025E32A95F1F70000019782
:103A7000A109B109E1CF80919A040C94E10B1F9246
:103A80000F920FB60F9211240BB60F922F933F9304
:103A90004F935F936F937F938F939F93AF93BF9356
:103AA000EF93FF938091550A9091560AA091570A7F
:103AB000B091580A892B8A2B8B2BE1F19091440A03
:103AC000E091450AF091460A8081892780838091A0
:103AD000550A9091560AA091570AB091580A1816A3
:103AE00019061A061B069CF48091550A9091560AF5
:103AF000A091570AB091580A0197A109B109809382
:103B0000550A9093560AA093570AB093580AFF910A
:103B1000EF91BF91AF919F918F917F916F915F9145
:103B20004F913F912F910F900BBE0F900FBE0F90B2
:103B30001F901895809121020E94AC08E8CF1F9237
:103B40000F920FB60F9211240BB60F922F933F9343
:103B50004F935F936F937F938F939F93AF93BF9395
:103B6000EF93FF9385E69AE00E942E07FF91EF9175
:103B7000BF91AF919F918F917F916F915F914F9185
:103B80003F912F910F900BBE0F900FBE0F901F9083
:103B900018951F920F920FB60F9211240BB60F9229
:103BA0002F938F939F93EF93FF93E091750AF0917A
:103BB000760A8081E0917B0AF0917C0A82FD1DC02B
:103BC000908180917E0A8F5F8F7320917F0A821788
:103BD00041F0E0917E0AF0E0EB59F54F958F80932C
:103BE0007E0AFF91EF919F918F912F910F900BBEC5
:103BF0000F900FBE0F901F9018958081F2CF1F92EB
:103C00000F920FB60F9211242F933F938F939F9390
:103C1000AF93BF9380910B0590910C05A0910D057A
:103C2000B0910E0530910A0523E0230F2D3758F58A
:103C30000196A11DB11D20930A0580930B05909359
:103C40000C05A0930D05B0930E0580910F05909182
:103C50001005A0911105B09112050196A11DB11D8D
:103C600080930F0590931005A0931105B093120552
:103C7000BF91AF919F918F913F912F910F900FBE68
:103C80000F901F90189526E8230F0296A11DB11DD5
:103C9000D2CF1F920F920FB60F9211240BB60F9234
:103CA0002F933F934F935F936F937F938F939F9344
:103CB000AF93BF93EF93FF938091B900887F8036D5
:103CC00009F44DC008F040C0883209F4A9C028F5B5
:103CD000803109F49DC0C8F4882309F4FBC0883002
:103CE00009F496C0FF91EF91BF91AF919F918F9191
:103CF0007F916F915F914F913F912F910F900BBEEC
:103D00000F900FBE0F901F901895883109F488C04E
:103D1000803241F78093E30414C0803409F49DC0DD
:103D200040F48033B9F38833E9F68093E30485ECFB
:103D3000B0C0803509F485C0883509F496C0883450
:103D400089F60E94071DCECF883909F48CC038F55A
:103D5000883729F050F4883611F0803719F683E05F
:103D60008093E4041092E20457C0883809F47BC0C1
:103D7000803919F0803809F0B5CF8091E2048032A3
:103D800008F071C0E091E20481E08E0F8093E204BC
:103D90008091BB00F0E0EE53FB4F80833DC0803B41
:103DA00039F0E0F4803A09F479C0883A09F09ACF02
:103DB00084E08093E4041092C1041092C004E09166
:103DC0001605F091170519958091C00481110FC057
:103DD00081E08093C0041092A00409C0803C09F4E3
:103DE000A6CF883C09F4A3CF883B09F07BCFE091B4
:103DF000C10481E08E0F8093C104F0E0E056FB4FD8
:103E000080818093BB009091C1048091C00429C03F
:103E1000809109058093BB0085EC8093BC0062CF44
:103E20009091080580910705981758F5E0910805CD
:103E300081E08E0F80930805F0E0E951FB4F80810F
:103E4000E9CFE091080581E08E0F8093080580910D
:103E5000BB00F0E0E951FB4F808390910805809111
:103E600007059817C8F285E8D8CFE091080581E0EA
:103E70008E0F809308058091BB00F0E0E951FB4F65
:103E800080838091E60481115CCF81E08093E5041A
:103E900084EA8093BC001092E40424CF85EC8093E4
:103EA000BC001092E4048091E204803230F4E0918E
:103EB000E204F0E0EE53FB4F10826091E20470E008
:103EC000E0911405F091150582EC94E0199510929B
:103ED000E20408CF1092E30434CFE5E6FAE013825F
:103EE000128248EE53E060E070E0448355836683BD
:103EF000778383E392E09183808385EC90E09587DC
:103F0000848784EC90E09787868780EC90E0918BA3
:103F1000808B81EC90E0938B828B82EC90E0958B90
:103F2000848B86EC90E0978B868B118E128E138E8D
:103F3000148EA2E0BBE013961C921E921297149668
:103F40004D935D936D937C93179785E492E0119662
:103F50009C938E93EEE0FBE01382128220E830E027
:103F60003583248380E490E097838683318720879C
:103F700093878287168A158614861786168681E0AF
:103F8000858B848B2FEF3FEF338B228B318B208BF4
:103F9000878B108E128E118E87E592E0918380833D
:103FA000148E138EB68FA58F10A2178E8FEF84A359
:103FB00085A386A387A380A780E89AE1A6E0B0E066
:103FC00085AB96ABA7ABB0AF80EA96E8A1E0B0E0D6
:103FD00081AF92AFA3AFB4AF80E586AF17AE0895BF
:103FE000789484B5826084BD84B5816084BD85B5D4
:103FF000826085BD85B5816085BD80916E008160E0
:1040000080936E0010928100809181008260809385
:104010008100809181008160809381008091800087
:104020008160809380008091B10084608093B100B2
:104030008091B00081608093B00080919100826097
:104040008093910080919100816080939100809194
:1040500090008160809390008091A10082608093A5
:10406000A1008091A10081608093A1008091A000B7
:1040700081608093A0008091210182608093210162
:1040800080912101816080932101809120018160D4
:104090008093200180917A00846080937A008091DF
:1040A0007A00826080937A0080917A0081608093A8
:1040B0007A0080917A00806880937A001092C10023
:1040C00061E08EE09BE00E946F0D80912D0B90913E
:1040D0002E0B892B39F10E94531A8091140B909169
:1040E000150B6091120B7091130B813291050CF03E
:1040F00069C1AC014052510957FF02C04F5F5F4F89
:10410000559547956357710977FF02C06F5F7F4FE1
:104110007595679590E2E92EF12C03E710E02CE409
:1041200037E068C12091140B3091150BC901079637
:1041300097FD0796A3E095958795AA95E1F72091BD
:10414000120B3091130B4C01829EC001839E900D87
:10415000929E900D11240E94EF2C90932E0B809331
:104160002D0B892B09F0B7CFE091750AF091760AF3
:10417000C2E0C083E091710AF091720A1082E0916E
:10418000730AF091740A8FEC808310927D0AE0919B
:10419000790AF0917A0A86E08083E091770AF091BB
:1041A000780A808180618083E091770AF091780AB3
:1041B000808188608083E091770AF091780A80811D
:1041C00080688083E091770AF091780A80818F7D02
:1041D000808362E083E00E94F10862E082E00E9456
:1041E000F10862E084E00E94F10861E086E10E944B
:1041F000F10861E087E10E94F10861E088E10E9436
:10420000F10861E089E10E94F10861E08AE10E9421
:10421000F10861E08BE10E94F10861E08CE10E940D
:10422000F10861E08DE10E94F10861E08EE10E94F9
:10423000F10861E08FE10E94F10861E080E20E94F4
:10424000F10861E081E20E94F10861E082E20E94EF
:10425000F10861E083E20E94F10861E084E20E94DB
:10426000F10861E085E20E94F10861E086E20E94C7
:10427000F10861E087E20E94F10861E088E20E94B3
:10428000F10861E089E20E94F10861E08AE20E949F
:10429000F10861E08AE00E94F10861E08BE00E9491
:1042A000F10861E08CE00E94F10861E08DE00E947D
:1042B000F10861E085E00E94F10861E086E00E947B
:1042C000F10861E087E00E94F10861E087E30E9465
:1042D000F10861E088E30E94F10886E990E090939C
:1042E0002C0580932B0590932E0580932D0590939C
:1042F00027058093260590932905809328059093A0
:1043000022058093210590932405809323050E9424
:10431000E51B0E94351B88E790E09093330580935E
:1043200032051092310510923005C0932F0590E0B0
:1043300080E00E94F91A88E790E00E94F91A6EE185
:1043400073E085E69AE00E94211B6624639452E0A4
:10435000C52E7724739463E0262E312C72E0D72E7D
:1043600086E30E94220B61E0C2970CF460E08EE0CD
:104370009BE00E941E1880911C0281110C94E6297A
:104380000E94531A4DE3A42E45E0B42EE50130E11E
:10439000832E912C8C81811102C48885998582306D
:1043A000910509F4D8C30CF008C2009709F429C29A
:1043B000019709F417C260E373E085E69AE00E9472
:1043C000211B1FC2AC014054510957FF02C04F5F6F
:1043D0005F4F559547956255710977FF02C06F5F32
:1043E0007F4F75956795E0E4EE2EF12C02E510E025
:1043F0002CE239E08EE09BE00E94551282E080932F
:10440000300B80912B0B90912C0B892B09F4DFC082
:104410008CE380932F0B10921905109218051092BF
:10442000620A1092610A0E94C30B88EB96E0909397
:1044300017058093160589EB96E0909315058093F8
:1044400014058091360B87FD1EC061E00E94F108C3
:1044500061E08091360B0E947E0861E070E080E0B0
:1044600090E00E945E0B60E08091360B0E947E0817
:104470006AE070E080E090E00E945E0B61E0809175
:10448000360B0E947E0880912B0B90912C0B892B70
:1044900009F45CC12091430B3091440B4091450BD2
:1044A0005091460B60E074E284EF90E00E94F02AA5
:1044B000205131094109510956954795379527955E
:1044C0002093B80064E088E497E00E94D3156091DF
:1044D000140B61508EE09BE00E94881664E084E437
:1044E00097E00E94D3158091300B60E1813009F094
:1044F00064E18EE09BE00E94881664E080E497E02F
:104500000E94D3158FE880934B0B8091120B9091F2
:10451000130B8038910509F032C18091140B9091F2
:10452000150B8034910509F03AC18091300B813030
:1045300009F023C18FE980934B0BC2E16AED8EE055
:104540009BE00E9488166C2F8EE09BE00E948816EC
:1045500061E88EE09BE00E94881660914B0B8EE034
:104560009BE00E94881669ED8EE09BE00E94881611
:104570008091300B62E2813009F061EF8EE09BE0C8
:104580000E94881666E08AE397E00E94D315809126
:104590002B0B90912C0B892B09F405C12091470B13
:1045A0003091480B4091490B50914A0B60E074E206
:1045B00084EF90E00E94F02A20513109410951090D
:1045C00056954795379527952093B800CDCD61E056
:1045D0008091340B0E94F10861E08091350B0E94BC
:1045E000F1088091340B082E000C990BFC01E85463
:1045F000F34FE491F0E0EE0FFF1FE256F34F2591E9
:10460000349130933C0B20933B0BFC01E85AF34F61
:10461000E491E093410B8091350B082E000C990B2F
:10462000FC01E854F34FE491F0E0EE0FFF1FE25677
:10463000F34FA591B491B0933E0BA0933D0BFC01B9
:10464000E85AF34FE491E093420B8C91E82BEC9302
:104650008091290B90912A0B892B09F434C0CFB794
:10466000F89480911305811127C0EDEEFCE0849150
:10467000EDE8FCE09491E82FF0E0EE0FFF1FE05E24
:10468000F84FA591B491EC91E92321F461E085E321
:104690000E947E0861E085E30E94F1088CB580618C
:1046A0008CBD8CB580648CBD61E084E30E94F10810
:1046B00061E083E30E94F108809113058F5F80938E
:1046C0001305CFBFBECE61E08091320B0E94F1088E
:1046D00061E08091330B0E94F1088091320B082E2B
:1046E000000C990BFC01E854F34FE491F0E0EE0F5D
:1046F000FF1FE256F34F259134913093380B2093EE
:10470000370BFC01E85AF34FE491E0933F0B8091A3
:10471000330B082E000C990BFC01E854F34FE49185
:10472000F0E0EE0FFF1FE256F34FA591B491B09366
:104730003A0BA093390BFC01E85AF34FE491E09354
:10474000400B8C91E095E823EC937BCE8091290B74
:1047500090912A0B892B31F080914C0B90914D0B4D
:104760000E94EA16E0913D0BF0913E0B9081809102
:10477000420B809589238083A5CE8FECDCCE8036DA
:10478000910569F48091140B9091150B409739F4C1
:104790008091300B813029F480E180934B0BC2E093
:1047A000CDCE8FEAFACFE0913D0BF0913E0B8081A8
:1047B0009091420B892B8083D7CC8430910509F4EA
:1047C000E2C10CF4D4C1059709F0F5CD4A815B81B3
:1047D0006881798116E0E12EF12C07E010E020E1FC
:1047E0003CE00BC04A815B816881798126E0E22E42
:1047F000F12C07E010E020E53CE08EE09BE00E9419
:10480000551241E0841A91082A968114910409F006
:10481000C1CD50EAA50EB11C8DE3A8168AE0B806FA
:1048200009F0B4CD409132055091330560913005C7
:1048300070913105A6E0EA2EF12C08E010E020EF9F
:104840003BE08EE09BE00E94551280912F05811184
:1048500013C040912D0550912E0560912B0570914C
:104860002C05F8E0EF2EF12C02E010E02CEE3BE0FE
:104870008EE09BE00E94551280912A05811113C0A1
:1048800040912805509129056091260570912705D2
:10489000E8E0EE2EF12C02E010E02CEE3BE08EE0A2
:1048A0009BE00E94551280912505811113C0409113
:1048B000230550912405609121057091220538E06F
:1048C000E32EF12C02E010E02CEE3BE08EE09BE0CA
:1048D0000E9455120E94ED160E94900B00913D0A15
:1048E00010913E0A20913F0A3091400A4B015C0131
:1048F000801A910AA20AB30A0091180210911902B3
:1049000020911A0230911B02081519052A053B0552
:1049100080F460933D0A70933E0A80933F0A90931F
:10492000400A66E473E085E69AE00E94211B0E943B
:10493000351B0E94900B0091390510913A0520918A
:104940003B0530913C054B015C01801A910AA20A9B
:10495000B30A0091100210911102209112023091BD
:104960001302081519052A053B0508F066C0609377
:10497000390570933A0580933B0590933C058DE390
:1049800095E0FC0128E030E0448141110AC04085F7
:104990005185452B31F042815381485F5F4F5383EE
:1049A000428321503109E056FF4F2115310561F74F
:1049B0000A96A5E08D3D9A0721F7C0911A05D0917E
:1049C0001B052196D0931B05C0931A052AE0E22E01
:1049D000F12CCE01B7010E94BF2C8B0170E060E08A
:1049E0000E947818C801B7010E94BF2C61E070E0F6
:1049F0000E947818CE0164E670E00E94BF2CCB01C3
:104A000062E070E00E947818CE016EE070E00E94D3
:104A1000BF2C892B91F48091160290911702019678
:104A200090931702809316028091140290911502C0
:104A30000196909315028093140287E30E94220B43
:104A40009C01295E33402D31310508F0BFC088E359
:104A500090E0909331058093300583E00E945508E3
:104A60002091300530913105892B49F428373105E3
:104A700034F4285F3F4F309331052093300582E0B6
:104A80000E9455082091300530913105892B49F459
:104A90001216130634F4285031093093310520934F
:104AA000300584E00E94550820912F05222309F447
:104AB000CEC0892B09F0CBC08091140290911502D1
:104AC000039709F0C4C082E090E0909315028093B0
:104AD00014028091300590913105049690932C0535
:104AE00080932B05809132059091330590932E058C
:104AF00080932D0510922F0560E971E080E090E031
:104B00000E945E0B80913D0A90913E0AA0913F0A5F
:104B1000B091400A80579E4FAF4FBF4F80933D0AE0
:104B200090933E0AA0933F0AB093400A80913905C2
:104B300090913A05A0913B05B0913C0580579E4F5E
:104B4000AF4FBF4F8093390590933A05A0933B0533
:104B5000B0933C0596C04A815B816881798196E07B
:104B6000E92EF12C07E010E020E43CE046CE4A813B
:104B70005B816881798186E0E82EF12C07E010E006
:104B800020E33CE03ACE4A815B816881798106E08E
:104B9000E02EF12C07E010E020E23CE02ECE813048
:104BA00009F02FCE8D8181508D83882361F04A8159
:104BB0005B8168817981B6E0EB2EF12C08E010E092
:104BC00020E03CE01ACE22E02C831BCE9C0125582D
:104BD00033402331310518F480E390E03ACF9C0153
:104BE0002D5B32402133310518F488E290E031CF5B
:104BF0009C01255432402534310518F480E290E0C0
:104C000028CF9C01255F31402133310518F488E11C
:104C100090E01FCF9C01295B31402D31310518F404
:104C200080E190E016CF9C01275831402D313105AD
:104C300018F488E090E00DCF8D5291408F349105AB
:104C400008F00BCF109231051092300506CF84E0AA
:104C50000E94550820912A05222349F0892B39F416
:104C60008091140290911502029709F4D2C284E057
:104C70000E94550820912505222319F0892B09F45B
:104C8000E3C280912F0581110EC080912D05909176
:104C90002E05069790932E0580932D05883F9F4FF4
:104CA00014F4C0922F0580912A0581110EC08091C5
:104CB000280590912905069790932905809328054A
:104CC000883F9F4F14F4C0922A05809125058111D9
:104CD0000EC080912305909124050697909324059A
:104CE00080932305883F9F4F14F4C09225058DE3E0
:104CF000482E85E0582EF12CE12C8201E201912C06
:104D0000812C8C8181119DC180912F0581114FC013
:104D1000D801ED91FC91119712968D919C91288567
:104D2000398560912B0570912C05A0912D05B091CE
:104D30002E05AB014E5F5F4FBB24B394E417F5071C
:104D40000CF0B12CAA24A394AD01485F5F4F8417E7
:104D500095070CF0A12CBA20069641E0A817B907D8
:104D60000CF040E0B42219F1D901A55DBD4F8C9142
:104D7000E80FF11D6E177F07D4F422303105B9F02A
:104D800024303105A1F08E819F81892B09F07BC2EF
:104D90006C82D0922F0560E573E085E69AE00E9470
:104DA000211BC7010E94F91AC4010E94F91A8091BF
:104DB0002A0581114CC0D801ED91FC9111971296F2
:104DC0008D919C91488559856091260570912705A4
:104DD000A0912805B09129059B012E5F3F4FBB2470
:104DE000B394E217F3070CF0B12CAA24A3949D010D
:104DF000285F3F4F821793070CF0A12CBA2006962C
:104E000021E0A817B9070CF020E0B22201F1DA0185
:104E1000A55DBD4F8C91E80FF11D6E177F07BCF4A7
:104E200042305105A1F08E819F81892B09F030C25B
:104E30006C82D0922A0560E573E085E69AE00E94D4
:104E4000211BC7010E94F91AC4010E94F91A80911E
:104E5000250581114CC0D801ED91FC911197129656
:104E60008D919C914885598560912105709122050D
:104E7000A0912305B09124059B012E5F3F4FBB24D9
:104E8000B394E217F3070CF0B12CAA24A3949D016C
:104E9000285F3F4F821793070CF0A12CBA2006968B
:104EA00021E0A817B9070CF020E0B22201F1DA01E5
:104EB000A55DBD4F8C91E80FF11D6E177F07BCF407
:104EC00042305105A1F08E819F81892B09F0E5C107
:104ED0006C82D092250560E573E085E69AE00E9439
:104EE000211BC7010E94F91AC4010E94F91AE0911E
:104EF0003005F09131056091320570913305D8018C
:104F00002D913C91119712968D919C91AF01485F24
:104F10005F4FA1E0241735070CF0A0E0B1E0AB0132
:104F20004A5F5F4F841795070CF0B0E0AB23295F11
:104F30003F4FB1E0E217F3070CF0B0E0AB2309F408
:104F400080C00696681779070CF07BC08885998524
:104F50009C012D7F2130310509F0C7C120911C052E
:104F60002111C3C16AE573E085E69AE00E94751AD3
:104F7000888599850E94F91AA0901602B0901702B0
:104F8000A114B10409F08EC180E797E10E942209C3
:104F900060E971E080E090E00E945E0B88E30E948F
:104FA000AC0867E773E085E69AE00E94211B109247
:104FB0001B0510921A0530921702209216023092A9
:104FC00015022092140270921C02198618860E9403
:104FD000E51BEDE3F5E011861086DF01A855BF4F14
:104FE00011961C921E92A056BF4F11961C921E92B3
:104FF000A056BF4F11961C921E92A056BF4F1196FD
:105000001C921E92A056BF4F11961C921E92A05643
:10501000BF4F11961C921E92A056BF4F1D921C921C
:105020003A96B5E0ED3DFB07B1F670921C050E9483
:10503000900B60931D0570931E0580931F05909340
:1050400020054FEF841A940A2A96065F1F4F50E1FD
:105050008516910409F055CE8FEFE81AF80A90EA08
:10506000490E511CA8E0EA16F10409F046CE67EF9C
:1050700073E085E69AE00E94211B0E94900B00914C
:105080001D0510911E0520911F05309120054B0133
:105090005C01801A910AA20AB30A950184010C3BB3
:1050A0001B4021053105A0F020911C05222381F031
:1050B00060931D0570931E0580931F059093200536
:1050C00010921C0560E074E085E69AE00E94211BC6
:1050D0008091160290911702843091050CF439C129
:1050E00061E08AE00E947E0861E08BE00E947E0819
:1050F00061E08CE00E947E0861E08DE00E947E0805
:105100008091140290911502833091050CF448C1EE
:1051100061E085E00E947E0861E086E00E947E08F2
:1051200061E087E00E947E080E94900B00913505A7
:105130001091360520913705309138054B015C01FF
:10514000801A910AA20AB30A950184010431174218
:105150002105310508F45AC020910E0230910F024A
:105160002230310509F052C0609335057093360541
:1051700080933705909338056CE174E085E69AE0FA
:105180000E94211B609118027091190280911A02ED
:1051900090911B020E94C62B4B015C012DEC3CEC54
:1051A0004CE45EE30E94522C9B01AC01C501B401AA
:1051B0000E94212B0E948E2B60931802709319027B
:1051C00080931A0290931B02609110027091110259
:1051D00080911202909113020E94C62B4B015C0138
:1051E0002DEC3CEC4CE45EE30E94522C9B01AC01A4
:1051F000C501B4010E94212B0E948E2B60931002E6
:105200007093110280931202909313020E94BD07C3
:10521000A7C888248394912C90921502809214023E
:1052200080913005909131050496909327058093E5
:10523000260580913205909133059093290580933E
:10524000280510922A0558CC8091140290911502DD
:10525000019709F016CD1092150210921402809158
:105260003005909131050496909322058093210595
:105270008091320590913305909324058093230506
:105280001092250539CC1F821E82D0922F058FCD1A
:105290001F821E82D0922A05DACD1F821E82D092F2
:1052A000250525CE80ED97E00E94220968EC70E08C
:1052B00080E090E00E945E0B88E30E94AC0821E051
:1052C000A21AB108B0921702A092160260E873E029
:1052D00085E69AE00E94751A809116029091170255
:1052E0000E94F91A19861886A0CE8230910591F491
:1052F00068E873E085E69AE00E94211B198618860B
:105300008091160290911702019690931702809354
:10531000160297CE8430910539F46EE973E085E684
:105320009AE00E94211BDECF059709F08ACE6AEC35
:1053300073E085E69AE00E94211B19861886809109
:105340001402909115020196909315028093140215
:1053500078CE8330910571F461E08AE00E947E0886
:1053600061E08BE00E947E0861E08CE00E947E0894
:1053700060E0C3CE8230910551F461E08AE00E9482
:105380007E0861E08BE00E947E0860E0EECF61E085
:10539000019709F060E08AE00E947E0860E0F2CFA9
:1053A0008230910551F461E085E00E947E0861E061
:1053B00086E00E947E0860E0B4CE61E0019709F0CB
:1053C00060E085E00E947E0860E0F2CF0E94E51B6D
:1053D0000E94900B60933D0A70933E0A80933F0AAF
:1053E0009093400A0E94900B645F7140810991097B
:1053F0006093390570933A0580933B0590933C0583
:105400000E94900B609335057093360580933705A5
:1054100090933805FBCE87E592E090930F0B809335
:105420000E0B80912D0B90912E0B009711F00C9488
:105430008B2D08958F929F92AF92BF92CF92DF9261
:10544000EF92FF92CF93DF93EC01688179818A819B
:105450009B81611571058105910521F464E279ED67
:105460008BE597E02DE133EF41E050E00E94BE2A4A
:1054700049015A019B01AC01A7EAB1E40E94DD2A6F
:105480006B017C01ACEEB4EFA50194010E94EB2A04
:10549000C60ED71EE81EF91EF7FE06C081E0C81A28
:1054A000D108E10880E8F80AC882D982EA82FB8242
:1054B000C701B6019F77DF91CF91FF90EF90DF900A
:1054C000CF90BF90AF909F908F9008958F929F92B2
:1054D000AF92BF92CF92DF92EF92FF926091220241
:1054E000709123028091240290912502611571052B
:1054F0008105910521F464E279ED8BE597E02DE1DA
:1055000033EF41E050E00E94BE2A49015A019B015D
:10551000AC01A7EAB1E40E94DD2A6B017C01ACEE8C
:10552000B4EFA50194010E94EB2AC60ED71EE81E17
:10553000F91EF7FE06C081E0C81AD108E10880E82C
:10554000F80AC0922202D0922302E0922402F09242
:105550002502C701B6019F77FF90EF90DF90CF90B3
:10556000BF90AF909F908F900895609322027093A8
:10557000230280932402909325020895052E97FB21
:105580001EF400940E94D52A57FD07D00E94F02AED
:1055900007FC03D04EF40C94D52A509540953095D5
:1055A00021953F4F4F4F5F4F08959095809570958F
:1055B00061957F4F8F4F9F4F08950E94122BA59F9B
:1055C000900DB49F900DA49F800D911D11240895FE
:1055D000B7FF0C94DD2A0E94DD2A821B930B0895ED
:1055E000A1E21A2EAA1BBB1BFD010DC0AA1FBB1FE7
:1055F000EE1FFF1FA217B307E407F50720F0A21B59
:10560000B30BE40BF50B661F771F881F991F1A94C5
:1056100069F760957095809590959B01AC01BD01EF
:10562000CF010895A29FB001B39FC001A39F700D49
:10563000811D1124911DB29F700D811D1124911D9A
:1056400008955058BB27AA270E94392B0C94182C78
:105650000E940A2C38F00E94112C20F039F49F3F50
:1056600019F426F40C94072C0EF4E095E7FB0C9447
:10567000012CE92F0E94292C58F3BA1762077307EF
:105680008407950720F079F4A6F50C944B2C0EF4C2
:10569000E0950B2EBA2FA02D0B01B90190010C0142
:1056A000CA01A0011124FF27591B99F0593F50F45A
:1056B000503E68F11A16F040A22F232F342F4427B2
:1056C000585FF3CF469537952795A795F0405395AA
:1056D000C9F77EF41F16BA0B620B730B840BBAF07A
:1056E0009150A1F0FF0FBB1F661F771F881FC2F7E5
:1056F0000EC0BA0F621F731F841F48F487957795F9
:105700006795B795F7959E3F08F0B0CF9395880FB2
:1057100008F09927EE0F9795879508950E94952B8D
:105720006894B1110C944C2C08950E94312C88F08F
:105730009F5798F0B92F9927B751B0F0E1F0660F55
:10574000771F881F991F1AF0BA95C9F714C0B13096
:1057500091F00E944B2CB1E008950C944B2C672FD4
:10576000782F8827B85F39F0B93FCCF386957795C5
:105770006795B395D9F73EF49095809570956195AE
:105780007F4F8F4F9F4F0895E89409C097FB3EF4D9
:1057900090958095709561957F4F8F4F9F4F99237E
:1057A000A9F0F92F96E9BB279395F69587957795FC
:1057B0006795B795F111F8CFFAF4BB0F11F460FFBC
:1057C0001BC06F5F7F4F8F4F9F4F16C0882311F014
:1057D00096E911C0772321F09EE8872F762F05C028
:1057E000662371F096E8862F70E060E02AF09A95C3
:1057F000660F771F881FDAF7880F9695879597F9B8
:10580000089597F99F6780E870E060E008959FEF42
:1058100080EC089500240A94161617061806090647
:10582000089500240A941216130614060506089516
:10583000092E0394000C11F4882352F0BB0F40F49E
:10584000BF2B11F460FF04C06F5F7F4F8F4F9F4FDE
:10585000089557FD9058440F551F59F05F3F71F060
:105860004795880F97FB991F61F09F3F79F08795C7
:105870000895121613061406551FF2CF4695F1DF50
:1058800008C0161617061806991FF1CF86957105E0
:10589000610508940895E894BB2766277727CB0114
:1058A00097F908950E94652C0C94182C0E940A2CDC
:1058B00038F00E94112C20F0952311F00C94012C4B
:1058C0000C94072C11240C944C2C0E94292C70F35E
:1058D000959FC1F3950F50E0551F629FF001729F95
:1058E000BB27F00DB11D639FAA27F00DB11DAA1FA4
:1058F000649F6627B00DA11D661F829F2227B00DF1
:10590000A11D621F739FB00DA11D621F839FA00D7B
:10591000611D221F749F3327A00D611D231F849FCB
:10592000600D211D822F762F6A2F11249F57504022
:105930009AF0F1F088234AF0EE0FFF1FBB1F661F9D
:10594000771F881F91505040A9F79E3F510580F066
:105950000C94012C0C944C2C5F3FE4F3983ED4F350
:10596000869577956795B795F795E7959F5FC1F70A
:10597000FE2B880F911D9695879597F9089597FBB3
:10598000072E16F4009407D077FD09D00E94DB2C77
:1059900007FC05D03EF4909581959F4F0895709532
:1059A00061957F4F0895EE0FFF1F881F8BBF0790F3
:1059B000F691E02D1994AA1BBB1B51E107C0AA1F49
:1059C000BB1FA617B70710F0A61BB70B881F991FA0
:1059D0005A95A9F780959095BC01CD0108950F9334
:1059E0001F93CF93DF938230910510F482E090E013
:1059F000E091500BF091510B30E020E0B0E0A0E0DE
:105A0000309799F42115310509F44AC0281B390B48
:105A100024303105D8F58A819B816115710589F1A2
:105A2000FB0193838283FE0111C040815181028179
:105A3000138148175907E0F04817590799F4109750
:105A400061F012960C93129713961C933296CF0125
:105A5000DF91CF911F910F9108950093500B1093F8
:105A6000510BF4CF2115310551F04217530738F08F
:105A7000A901DB019A01BD01DF01F801C1CFEF01EE
:105A8000F9CF9093510B8093500BCDCFFE01E20FD5
:105A9000F31F819391932250310939832883D7CF03
:105AA00020914E0B30914F0B232B41F42091280273
:105AB0003091290230934F0B20934E0B20912602F8
:105AC000309127022115310541F42DB73EB74091A1
:105AD0002A0250912B02241B350BE0914E0BF091C2
